:060000000A128A110C280F
:10000800FE00030EF1000A08F2000A128A115228B3
:100018000A128A110F28F301F40183010A128A11C6
:100028007D2883160317880189012030831603135E
:100038008500831203138501831603138801831235
:1000480003138801831603130614861481131514E9
:100058009514161496148312031386010B10831635
:1000680003130F088F3940388F000F14183087009A
:100078008312031387011408F0390438940014120A
:1000880094168316031314179413831203138C11F5
:10009800831603138C158B170B1708000B1C552898
:1000A800562869288312031306185B285C286128E0
:1000B8000130F0007008F40767288618642865285E
:1000C80067280130F4020B107628831203138C1D65
:1000D8006E286F2876281308F0007008F30074085B
:1000E80093008C1172088A00710E8300FE0E7E0E3A
:1000F80009000A128A1115200A128A1182280A1286
:040108008A110C2824
:08400000FF3FFF3FFF3FFF3FC0
:04400E00D420FF3F7C
:00000001FF
